{
  "_format": "hh-sol-artifact-1",
  "contractName": "Cruzzer",
  "sourceName": "contracts/Cruzzer.sol",
  "abi": [
    {
      "inputs": [],
      "stateMutability": "nonpayable",
      "type": "constructor"
    },
    {
      "inputs": [
        {
          "internalType": "address",
          "name": "sender",
          "type": "address"
        },
        {
          "internalType": "uint256",
          "name": "tokenId",
          "type": "uint256"
        },
        {
          "internalType": "address",
          "name": "owner",
          "type": "address"
        }
      ],
      "name": "ERC721IncorrectOwner",
      "type": "error"
    },
    {
      "inputs": [
        {
          "internalType": "address",
          "name": "operator",
          "type": "address"
        },
        {
          "internalType": "uint256",
          "name": "tokenId",
          "type": "uint256"
        }
      ],
      "name": "ERC721InsufficientApproval",
      "type": "error"
    },
    {
      "inputs": [
        {
          "internalType": "address",
          "name": "approver",
          "type": "address"
        }
      ],
      "name": "ERC721InvalidApprover",
      "type": "error"
    },
    {
      "inputs": [
        {
          "internalType": "address",
          "name": "operator",
          "type": "address"
        }
      ],
      "name": "ERC721InvalidOperator",
      "type": "error"
    },
    {
      "inputs": [
        {
          "internalType": "address",
          "name": "owner",
          "type": "address"
        }
      ],
      "name": "ERC721InvalidOwner",
      "type": "error"
    },
    {
      "inputs": [
        {
          "internalType": "address",
          "name": "receiver",
          "type": "address"
        }
      ],
      "name": "ERC721InvalidReceiver",
      "type": "error"
    },
    {
      "inputs": [
        {
          "internalType": "address",
          "name": "sender",
          "type": "address"
        }
      ],
      "name": "ERC721InvalidSender",
      "type": "error"
    },
    {
      "inputs": [
        {
          "internalType": "uint256",
          "name": "tokenId",
          "type": "uint256"
        }
      ],
      "name": "ERC721NonexistentToken",
      "type": "error"
    },
    {
      "anonymous": false,
      "inputs": [
        {
          "indexed": true,
          "internalType": "address",
          "name": "owner",
          "type": "address"
        },
        {
          "indexed": true,
          "internalType": "address",
          "name": "approved",
          "type": "address"
        },
        {
          "indexed": true,
          "internalType": "uint256",
          "name": "tokenId",
          "type": "uint256"
        }
      ],
      "name": "Approval",
      "type": "event"
    },
    {
      "anonymous": false,
      "inputs": [
        {
          "indexed": true,
          "internalType": "address",
          "name": "owner",
          "type": "address"
        },
        {
          "indexed": true,
          "internalType": "address",
          "name": "operator",
          "type": "address"
        },
        {
          "indexed": false,
          "internalType": "bool",
          "name": "approved",
          "type": "bool"
        }
      ],
      "name": "ApprovalForAll",
      "type": "event"
    },
    {
      "anonymous": false,
      "inputs": [
        {
          "indexed": false,
          "internalType": "uint256",
          "name": "_fromTokenId",
          "type": "uint256"
        },
        {
          "indexed": false,
          "internalType": "uint256",
          "name": "_toTokenId",
          "type": "uint256"
        }
      ],
      "name": "BatchMetadataUpdate",
      "type": "event"
    },
    {
      "anonymous": false,
      "inputs": [
        {
          "indexed": false,
          "internalType": "uint256",
          "name": "_tokenId",
          "type": "uint256"
        }
      ],
      "name": "MetadataUpdate",
      "type": "event"
    },
    {
      "anonymous": false,
      "inputs": [
        {
          "indexed": false,
          "internalType": "address",
          "name": "owner",
          "type": "address"
        },
        {
          "indexed": false,
          "internalType": "bool",
          "name": "forSale",
          "type": "bool"
        },
        {
          "indexed": false,
          "internalType": "uint256",
          "name": "price",
          "type": "uint256"
        },
        {
          "indexed": false,
          "internalType": "uint256",
          "name": "tokenId",
          "type": "uint256"
        },
        {
          "indexed": false,
          "internalType": "string",
          "name": "name",
          "type": "string"
        },
        {
          "indexed": false,
          "internalType": "string",
          "name": "desc",
          "type": "string"
        },
        {
          "indexed": false,
          "internalType": "string",
          "name": "tokenURI",
          "type": "string"
        }
      ],
      "name": "NFTAction",
      "type": "event"
    },
    {
      "anonymous": false,
      "inputs": [
        {
          "indexed": true,
          "internalType": "address",
          "name": "from",
          "type": "address"
        },
        {
          "indexed": true,
          "internalType": "address",
          "name": "to",
          "type": "address"
        },
        {
          "indexed": true,
          "internalType": "uint256",
          "name": "tokenId",
          "type": "uint256"
        }
      ],
      "name": "Transfer",
      "type": "event"
    },
    {
      "inputs": [
        {
          "internalType": "address",
          "name": "to",
          "type": "address"
        },
        {
          "internalType": "uint256",
          "name": "tokenId",
          "type": "uint256"
        }
      ],
      "name": "approve",
      "outputs": [],
      "stateMutability": "nonpayable",
      "type": "function"
    },
    {
      "inputs": [
        {
          "internalType": "address",
          "name": "owner",
          "type": "address"
        }
      ],
      "name": "balanceOf",
      "outputs": [
        {
          "internalType": "uint256",
          "name": "",
          "type": "uint256"
        }
      ],
      "stateMutability": "view",
      "type": "function"
    },
    {
      "inputs": [
        {
          "internalType": "uint256",
          "name": "tokenId",
          "type": "uint256"
        }
      ],
      "name": "buyNFT",
      "outputs": [],
      "stateMutability": "payable",
      "type": "function"
    },
    {
      "inputs": [
        {
          "internalType": "uint256",
          "name": "tokenId",
          "type": "uint256"
        }
      ],
      "name": "getApproved",
      "outputs": [
        {
          "internalType": "address",
          "name": "",
          "type": "address"
        }
      ],
      "stateMutability": "view",
      "type": "function"
    },
    {
      "inputs": [],
      "name": "getNFTs",
      "outputs": [
        {
          "components": [
            {
              "internalType": "address payable",
              "name": "owner",
              "type": "address"
            },
            {
              "internalType": "bool",
              "name": "forSale",
              "type": "bool"
            },
            {
              "internalType": "uint256",
              "name": "price",
              "type": "uint256"
            },
            {
              "internalType": "uint256",
              "name": "tokenId",
              "type": "uint256"
            },
            {
              "internalType": "string",
              "name": "name",
              "type": "string"
            },
            {
              "internalType": "string",
              "name": "desc",
              "type": "string"
            },
            {
              "internalType": "string",
              "name": "tokenURI",
              "type": "string"
            }
          ],
          "internalType": "struct Cruzzer.NFTDetails[]",
          "name": "",
          "type": "tuple[]"
        }
      ],
      "stateMutability": "view",
      "type": "function"
    },
    {
      "inputs": [],
      "name": "getNextTokendId",
      "outputs": [
        {
          "internalType": "uint256",
          "name": "",
          "type": "uint256"
        }
      ],
      "stateMutability": "view",
      "type": "function"
    },
    {
      "inputs": [
        {
          "internalType": "address",
          "name": "owner",
          "type": "address"
        },
        {
          "internalType": "address",
          "name": "operator",
          "type": "address"
        }
      ],
      "name": "isApprovedForAll",
      "outputs": [
        {
          "internalType": "bool",
          "name": "",
          "type": "bool"
        }
      ],
      "stateMutability": "view",
      "type": "function"
    },
    {
      "inputs": [
        {
          "internalType": "uint256",
          "name": "tokenId",
          "type": "uint256"
        }
      ],
      "name": "makeNFTNonSellable",
      "outputs": [
        {
          "components": [
            {
              "internalType": "address payable",
              "name": "owner",
              "type": "address"
            },
            {
              "internalType": "bool",
              "name": "forSale",
              "type": "bool"
            },
            {
              "internalType": "uint256",
              "name": "price",
              "type": "uint256"
            },
            {
              "internalType": "uint256",
              "name": "tokenId",
              "type": "uint256"
            },
            {
              "internalType": "string",
              "name": "name",
              "type": "string"
            },
            {
              "internalType": "string",
              "name": "desc",
              "type": "string"
            },
            {
              "internalType": "string",
              "name": "tokenURI",
              "type": "string"
            }
          ],
          "internalType": "struct Cruzzer.NFTDetails",
          "name": "",
          "type": "tuple"
        }
      ],
      "stateMutability": "nonpayable",
      "type": "function"
    },
    {
      "inputs": [
        {
          "internalType": "uint256",
          "name": "tokenId",
          "type": "uint256"
        },
        {
          "internalType": "uint256",
          "name": "price",
          "type": "uint256"
        }
      ],
      "name": "makeNFTSellable",
      "outputs": [
        {
          "components": [
            {
              "internalType": "address payable",
              "name": "owner",
              "type": "address"
            },
            {
              "internalType": "bool",
              "name": "forSale",
              "type": "bool"
            },
            {
              "internalType": "uint256",
              "name": "price",
              "type": "uint256"
            },
            {
              "internalType": "uint256",
              "name": "tokenId",
              "type": "uint256"
            },
            {
              "internalType": "string",
              "name": "name",
              "type": "string"
            },
            {
              "internalType": "string",
              "name": "desc",
              "type": "string"
            },
            {
              "internalType": "string",
              "name": "tokenURI",
              "type": "string"
            }
          ],
          "internalType": "struct Cruzzer.NFTDetails",
          "name": "",
          "type": "tuple"
        }
      ],
      "stateMutability": "nonpayable",
      "type": "function"
    },
    {
      "inputs": [
        {
          "internalType": "string",
          "name": "name",
          "type": "string"
        },
        {
          "internalType": "string",
          "name": "desc",
          "type": "string"
        },
        {
          "internalType": "string",
          "name": "_tokenURI",
          "type": "string"
        }
      ],
      "name": "mintToken",
      "outputs": [
        {
          "components": [
            {
              "internalType": "address payable",
              "name": "owner",
              "type": "address"
            },
            {
              "internalType": "bool",
              "name": "forSale",
              "type": "bool"
            },
            {
              "internalType": "uint256",
              "name": "price",
              "type": "uint256"
            },
            {
              "internalType": "uint256",
              "name": "tokenId",
              "type": "uint256"
            },
            {
              "internalType": "string",
              "name": "name",
              "type": "string"
            },
            {
              "internalType": "string",
              "name": "desc",
              "type": "string"
            },
            {
              "internalType": "string",
              "name": "tokenURI",
              "type": "string"
            }
          ],
          "internalType": "struct Cruzzer.NFTDetails",
          "name": "",
          "type": "tuple"
        }
      ],
      "stateMutability": "nonpayable",
      "type": "function"
    },
    {
      "inputs": [],
      "name": "name",
      "outputs": [
        {
          "internalType": "string",
          "name": "",
          "type": "string"
        }
      ],
      "stateMutability": "view",
      "type": "function"
    },
    {
      "inputs": [
        {
          "internalType": "uint256",
          "name": "tokenId",
          "type": "uint256"
        }
      ],
      "name": "ownerOf",
      "outputs": [
        {
          "internalType": "address",
          "name": "",
          "type": "address"
        }
      ],
      "stateMutability": "view",
      "type": "function"
    },
    {
      "inputs": [
        {
          "internalType": "address",
          "name": "from",
          "type": "address"
        },
        {
          "internalType": "address",
          "name": "to",
          "type": "address"
        },
        {
          "internalType": "uint256",
          "name": "tokenId",
          "type": "uint256"
        }
      ],
      "name": "safeTransferFrom",
      "outputs": [],
      "stateMutability": "nonpayable",
      "type": "function"
    },
    {
      "inputs": [
        {
          "internalType": "address",
          "name": "from",
          "type": "address"
        },
        {
          "internalType": "address",
          "name": "to",
          "type": "address"
        },
        {
          "internalType": "uint256",
          "name": "tokenId",
          "type": "uint256"
        },
        {
          "internalType": "bytes",
          "name": "data",
          "type": "bytes"
        }
      ],
      "name": "safeTransferFrom",
      "outputs": [],
      "stateMutability": "nonpayable",
      "type": "function"
    },
    {
      "inputs": [
        {
          "internalType": "address",
          "name": "operator",
          "type": "address"
        },
        {
          "internalType": "bool",
          "name": "approved",
          "type": "bool"
        }
      ],
      "name": "setApprovalForAll",
      "outputs": [],
      "stateMutability": "nonpayable",
      "type": "function"
    },
    {
      "inputs": [
        {
          "internalType": "bytes4",
          "name": "interfaceId",
          "type": "bytes4"
        }
      ],
      "name": "supportsInterface",
      "outputs": [
        {
          "internalType": "bool",
          "name": "",
          "type": "bool"
        }
      ],
      "stateMutability": "view",
      "type": "function"
    },
    {
      "inputs": [],
      "name": "symbol",
      "outputs": [
        {
          "internalType": "string",
          "name": "",
          "type": "string"
        }
      ],
      "stateMutability": "view",
      "type": "function"
    },
    {
      "inputs": [
        {
          "internalType": "uint256",
          "name": "tokenId",
          "type": "uint256"
        }
      ],
      "name": "tokenURI",
      "outputs": [
        {
          "internalType": "string",
          "name": "",
          "type": "string"
        }
      ],
      "stateMutability": "view",
      "type": "function"
    },
    {
      "inputs": [
        {
          "internalType": "address",
          "name": "from",
          "type": "address"
        },
        {
          "internalType": "address",
          "name": "to",
          "type": "address"
        },
        {
          "internalType": "uint256",
          "name": "tokenId",
          "type": "uint256"
        }
      ],
      "name": "transferFrom",
      "outputs": [],
      "stateMutability": "nonpayable",
      "type": "function"
    }
  ],
  "bytecode": "0x60806040523480156200001157600080fd5b506040518060400160405280600781526020017f4372757a7a6572000000000000000000000000000000000000000000000000008152506040518060400160405280600481526020017f43525a520000000000000000000000000000000000000000000000000000000081525081600090816200008f919062000324565b508060019081620000a1919062000324565b5050506200040b565b600081519050919050565b7f4e487b7100000000000000000000000000000000000000000000000000000000600052604160045260246000fd5b7f4e487b7100000000000000000000000000000000000000000000000000000000600052602260045260246000fd5b600060028204905060018216806200012c57607f821691505b602082108103620001425762000141620000e4565b5b50919050565b60008190508160005260206000209050919050565b60006020601f8301049050919050565b600082821b905092915050565b600060088302620001ac7fffffffffffffffffffffffffffffffffffffffffffffffffffffffffffffffff826200016d565b620001b886836200016d565b95508019841693508086168417925050509392505050565b6000819050919050565b6000819050919050565b600062000205620001ff620001f984620001d0565b620001da565b620001d0565b9050919050565b6000819050919050565b6200022183620001e4565b6200023962000230826200020c565b8484546200017a565b825550505050565b600090565b6200025062000241565b6200025d81848462000216565b505050565b5b8181101562000285576200027960008262000246565b60018101905062000263565b5050565b601f821115620002d4576200029e8162000148565b620002a9846200015d565b81016020851015620002b9578190505b620002d1620002c8856200015d565b83018262000262565b50505b505050565b600082821c905092915050565b6000620002f960001984600802620002d9565b1980831691505092915050565b6000620003148383620002e6565b9150826002028217905092915050565b6200032f82620000aa565b67ffffffffffffffff8111156200034b576200034a620000b5565b5b62000357825462000113565b6200036482828562000289565b600060209050601f8311600181146200039c576000841562000387578287015190505b62000393858262000306565b86555062000403565b601f198416620003ac8662000148565b60005b82811015620003d657848901518255600182019150602085019450602081019050620003af565b86831015620003f65784890151620003f2601f891682620002e6565b8355505b6001600288020188555050505b505050505050565b614307806200041b6000396000f3fe6080604052600436106101145760003560e01c80636352211e116100a0578063a22cb46511610064578063a22cb465146103ca578063b88d4fde146103f3578063c87b56dd1461041c578063e985e9c514610459578063efb5ff921461049657610114565b80636352211e146102ab57806370a08231146102e8578063921e6bd21461032557806395d89b4114610362578063a1d0a5341461038d57610114565b8063227212f2116100e7578063227212f2146101e757806323b872dd1461021257806342842e0e1461023b5780634d7312671461026457806351ed82881461028f57610114565b806301ffc9a71461011957806306fdde0314610156578063081812fc14610181578063095ea7b3146101be575b600080fd5b34801561012557600080fd5b50610140600480360381019061013b9190612e7f565b6104d3565b60405161014d9190612ec7565b60405180910390f35b34801561016257600080fd5b5061016b6104e5565b6040516101789190612f72565b60405180910390f35b34801561018d57600080fd5b506101a860048036038101906101a39190612fca565b610577565b6040516101b59190613038565b60405180910390f35b3480156101ca57600080fd5b506101e560048036038101906101e0919061307f565b610593565b005b3480156101f357600080fd5b506101fc6105a9565b60405161020991906132b4565b60405180910390f35b34801561021e57600080fd5b50610239600480360381019061023491906132d6565b610843565b005b34801561024757600080fd5b50610262600480360381019061025d91906132d6565b610945565b005b34801561027057600080fd5b50610279610965565b6040516102869190613338565b60405180910390f35b6102a960048036038101906102a49190612fca565b61096f565b005b3480156102b757600080fd5b506102d260048036038101906102cd9190612fca565b610ee6565b6040516102df9190613038565b60405180910390f35b3480156102f457600080fd5b5061030f600480360381019061030a9190613353565b610ef8565b60405161031c9190613338565b60405180910390f35b34801561033157600080fd5b5061034c60048036038101906103479190612fca565b610fb2565b604051610359919061342a565b60405180910390f35b34801561036e57600080fd5b506103776113f6565b6040516103849190612f72565b60405180910390f35b34801561039957600080fd5b506103b460048036038101906103af9190613581565b611488565b6040516103c1919061342a565b60405180910390f35b3480156103d657600080fd5b506103f160048036038101906103ec9190613654565b611615565b005b3480156103ff57600080fd5b5061041a60048036038101906104159190613735565b61162b565b005b34801561042857600080fd5b50610443600480360381019061043e9190612fca565b611648565b6040516104509190612f72565b60405180910390f35b34801561046557600080fd5b50610480600480360381019061047b91906137b8565b61165a565b60405161048d9190612ec7565b60405180910390f35b3480156104a257600080fd5b506104bd60048036038101906104b891906137f8565b6116ee565b6040516104ca919061342a565b60405180910390f35b60006104de82611b79565b9050919050565b6060600080546104f490613867565b80601f016020809104026020016040519081016040528092919081815260200182805461052090613867565b801561056d5780601f106105425761010080835404028352916020019161056d565b820191906000526020600020905b81548152906001019060200180831161055057829003601f168201915b5050505050905090565b600061058282611bda565b5061058c82611c62565b9050919050565b6105a582826105a0611c9f565b611ca7565b5050565b60606008805480602002602001604051908101604052809291908181526020016000905b8282101561083a57838290600052602060002090600602016040518060e00160405290816000820160009054906101000a900473ffffffffffffffffffffffffffffffffffffffff1673ffffffffffffffffffffffffffffffffffffffff1673ffffffffffffffffffffffffffffffffffffffff1681526020016000820160149054906101000a900460ff16151515158152602001600182015481526020016002820154815260200160038201805461068590613867565b80601f01602080910402602001604051908101604052809291908181526020018280546106b190613867565b80156106fe5780601f106106d3576101008083540402835291602001916106fe565b820191906000526020600020905b8154815290600101906020018083116106e157829003601f168201915b5050505050815260200160048201805461071790613867565b80601f016020809104026020016040519081016040528092919081815260200182805461074390613867565b80156107905780601f1061076557610100808354040283529160200191610790565b820191906000526020600020905b81548152906001019060200180831161077357829003601f168201915b505050505081526020016005820180546107a990613867565b80601f01602080910402602001604051908101604052809291908181526020018280546107d590613867565b80156108225780601f106107f757610100808354040283529160200191610822565b820191906000526020600020905b81548152906001019060200180831161080557829003601f168201915b505050505081525050815260200190600101906105cd565b50505050905090565b600073ffffffffffffffffffffffffffffffffffffffff168273ffffffffffffffffffffffffffffffffffffffff16036108b55760006040517f64a0ae920000000000000000000000000000000000000000000000000000000081526004016108ac9190613038565b60405180910390fd5b60006108c983836108c4611c9f565b611cb9565b90508373ffffffffffffffffffffffffffffffffffffffff168173ffffffffffffffffffffffffffffffffffffffff161461093f578382826040517f64283d7b00000000000000000000000000000000000000000000000000000000815260040161093693929190613898565b60405180910390fd5b50505050565b6109608383836040518060200160405280600081525061162b565b505050565b6000600754905090565b600060088281548110610985576109846138cf565b5b90600052602060002090600602016040518060e00160405290816000820160009054906101000a900473ffffffffffffffffffffffffffffffffffffffff1673ffffffffffffffffffffffffffffffffffffffff1673ffffffffffffffffffffffffffffffffffffffff1681526020016000820160149054906101000a900460ff161515151581526020016001820154815260200160028201548152602001600382018054610a3390613867565b80601f0160208091040260200160405190810160405280929190818152602001828054610a5f90613867565b8015610aac5780601f10610a8157610100808354040283529160200191610aac565b820191906000526020600020905b815481529060010190602001808311610a8f57829003601f168201915b50505050508152602001600482018054610ac590613867565b80601f0160208091040260200160405190810160405280929190818152602001828054610af190613867565b8015610b3e5780601f10610b1357610100808354040283529160200191610b3e565b820191906000526020600020905b815481529060010190602001808311610b2157829003601f168201915b50505050508152602001600582018054610b5790613867565b80601f0160208091040260200160405190810160405280929190818152602001828054610b8390613867565b8015610bd05780601f10610ba557610100808354040283529160200191610bd0565b820191906000526020600020905b815481529060010190602001808311610bb357829003601f168201915b5050505050815250509050806000015173ffffffffffffffffffffffffffffffffffffffff163373ffffffffffffffffffffffffffffffffffffffff1603610c4d576040517f08c379a0000000000000000000000000000000000000000000000000000000008152600401610c449061394a565b60405180910390fd5b600015158160200151151503610c98576040517f08c379a0000000000000000000000000000000000000000000000000000000008152600401610c8f906139b6565b60405180910390fd5b80604001513414610cde576040517f08c379a0000000000000000000000000000000000000000000000000000000008152600401610cd590613a22565b60405180910390fd5b6000816000015190506000826040018181525050600082602001901515908115158152505033826000019073ffffffffffffffffffffffffffffffffffffffff16908173ffffffffffffffffffffffffffffffffffffffff16815250506000808273ffffffffffffffffffffffffffffffffffffffff1634604051610d6290613a73565b60006040518083038185875af1925050503d8060008114610d9f576040519150601f19603f3d011682016040523d82523d6000602084013e610da4565b606091505b5091509150606090508360088681548110610dc257610dc16138cf565b5b906000526020600020906006020160008201518160000160006101000a81548173ffffffffffffffffffffffffffffffffffffffff021916908373ffffffffffffffffffffffffffffffffffffffff16021790555060208201518160000160146101000a81548160ff02191690831515021790555060408201518160010155606082015181600201556080820151816003019081610e609190613c34565b5060a0820151816004019081610e769190613c34565b5060c0820151816005019081610e8c9190613c34565b50905050610e9f30338660600151611ccf565b81610edf576040517f08c379a0000000000000000000000000000000000000000000000000000000008152600401610ed690613d52565b60405180910390fd5b5050505050565b6000610ef182611bda565b9050919050565b60008073ffffffffffffffffffffffffffffffffffffffff168273ffffffffffffffffffffffffffffffffffffffff1603610f6b5760006040517f89c62b64000000000000000000000000000000000000000000000000000000008152600401610f629190613038565b60405180910390fd5b600360008373ffffffffffffffffffffffffffffffffffffffff1673ffffffffffffffffffffffffffffffffffffffff168152602001908152602001600020549050919050565b610fba612dbe565b600060088381548110610fd057610fcf6138cf565b5b90600052602060002090600602016040518060e00160405290816000820160009054906101000a900473ffffffffffffffffffffffffffffffffffffffff1673ffffffffffffffffffffffffffffffffffffffff1673ffffffffffffffffffffffffffffffffffffffff1681526020016000820160149054906101000a900460ff16151515158152602001600182015481526020016002820154815260200160038201805461107e90613867565b80601f01602080910402602001604051908101604052809291908181526020018280546110aa90613867565b80156110f75780601f106110cc576101008083540402835291602001916110f7565b820191906000526020600020905b8154815290600101906020018083116110da57829003601f168201915b5050505050815260200160048201805461111090613867565b80601f016020809104026020016040519081016040528092919081815260200182805461113c90613867565b80156111895780601f1061115e57610100808354040283529160200191611189565b820191906000526020600020905b81548152906001019060200180831161116c57829003601f168201915b505050505081526020016005820180546111a290613867565b80601f01602080910402602001604051908101604052809291908181526020018280546111ce90613867565b801561121b5780601f106111f05761010080835404028352916020019161121b565b820191906000526020600020905b8154815290600101906020018083116111fe57829003601f168201915b5050505050815250509050600115158160200151151514611271576040517f08c379a000000000000000000000000000000000000000000000000000000000815260040161126890613dbe565b60405180910390fd5b806000015173ffffffffffffffffffffffffffffffffffffffff163373ffffffffffffffffffffffffffffffffffffffff16146112e3576040517f08c379a00000000000000000000000000000000000000000000000000000000081526004016112da90613e50565b60405180910390fd5b600081602001901515908115158152505060008160400181815250508060088481548110611314576113136138cf565b5b906000526020600020906006020160008201518160000160006101000a81548173ffffffffffffffffffffffffffffffffffffffff021916908373ffffffffffffffffffffffffffffffffffffffff16021790555060208201518160000160146101000a81548160ff021916908315150217905550604082015181600101556060820151816002015560808201518160030190816113b29190613c34565b5060a08201518160040190816113c89190613c34565b5060c08201518160050190816113de9190613c34565b509050506113ed303385611ccf565b80915050919050565b60606001805461140590613867565b80601f016020809104026020016040519081016040528092919081815260200182805461143190613867565b801561147e5780601f106114535761010080835404028352916020019161147e565b820191906000526020600020905b81548152906001019060200180831161146157829003601f168201915b5050505050905090565b611490612dbe565b60006114b93386866000600760008154809291906114ad90613e9f565b91905055600089611e3c565b90506114c9338260600151611ea2565b6114d7816060015184611f9b565b600881908060018154018082558091505060019003906000526020600020906006020160009091909190915060008201518160000160006101000a81548173ffffffffffffffffffffffffffffffffffffffff021916908373ffffffffffffffffffffffffffffffffffffffff16021790555060208201518160000160146101000a81548160ff021916908315150217905550604082015181600101556060820151816002015560808201518160030190816115939190613c34565b5060a08201518160040190816115a99190613c34565b5060c08201518160050190816115bf9190613c34565b5050507f96bb7521a080e14775290b894735a906f1974932bede97e576c099636055611b3360008084606001518989896040516116029796959493929190613f22565b60405180910390a1809150509392505050565b611627611620611c9f565b8383611ff7565b5050565b611636848484610843565b61164284848484612166565b50505050565b60606116538261231d565b9050919050565b6000600560008473ffffffffffffffffffffffffffffffffffffffff1673ffffffffffffffffffffffffffffffffffffffff16815260200190815260200160002060008373ffffffffffffffffffffffffffffffffffffffff1673ffffffffffffffffffffffffffffffffffffffff16815260200190815260200160002060009054906101000a900460ff16905092915050565b6116f6612dbe565b60006008848154811061170c5761170b6138cf565b5b90600052602060002090600602016040518060e00160405290816000820160009054906101000a900473ffffffffffffffffffffffffffffffffffffffff1673ffffffffffffffffffffffffffffffffffffffff1673ffffffffffffffffffffffffffffffffffffffff1681526020016000820160149054906101000a900460ff1615151515815260200160018201548152602001600282015481526020016003820180546117ba90613867565b80601f01602080910402602001604051908101604052809291908181526020018280546117e690613867565b80156118335780601f1061180857610100808354040283529160200191611833565b820191906000526020600020905b81548152906001019060200180831161181657829003601f168201915b5050505050815260200160048201805461184c90613867565b80601f016020809104026020016040519081016040528092919081815260200182805461187890613867565b80156118c55780601f1061189a576101008083540402835291602001916118c5565b820191906000526020600020905b8154815290600101906020018083116118a857829003601f168201915b505050505081526020016005820180546118de90613867565b80601f016020809104026020016040519081016040528092919081815260200182805461190a90613867565b80156119575780601f1061192c57610100808354040283529160200191611957565b820191906000526020600020905b81548152906001019060200180831161193a57829003601f168201915b5050505050815250509050806000015173ffffffffffffffffffffffffffffffffffffffff163373ffffffffffffffffffffffffffffffffffffffff16146119d4576040517f08c379a00000000000000000000000000000000000000000000000000000000081526004016119cb90614018565b60405180910390fd5b600015158160200151151514611a1f576040517f08c379a0000000000000000000000000000000000000000000000000000000008152600401611a1690614084565b60405180910390fd5b60008311611a62576040517f08c379a0000000000000000000000000000000000000000000000000000000008152600401611a5990614116565b60405180910390fd5b6001816020019015159081151581525050828160400181815250508060088581548110611a9257611a916138cf565b5b906000526020600020906006020160008201518160000160006101000a81548173ffffffffffffffffffffffffffffffffffffffff021916908373ffffffffffffffffffffffffffffffffffffffff16021790555060208201518160000160146101000a81548160ff02191690831515021790555060408201518160010155606082015181600201556080820151816003019081611b309190613c34565b5060a0820151816004019081611b469190613c34565b5060c0820151816005019081611b5c9190613c34565b50905050611b6f81600001513086611ccf565b8091505092915050565b6000634906490660e01b7bffffffffffffffffffffffffffffffffffffffffffffffffffffffff1916827bffffffffffffffffffffffffffffffffffffffffffffffffffffffff19161480611bd35750611bd282612430565b5b9050919050565b600080611be683612512565b9050600073ffffffffffffffffffffffffffffffffffffffff168173ffffffffffffffffffffffffffffffffffffffff1603611c5957826040517f7e273289000000000000000000000000000000000000000000000000000000008152600401611c509190613338565b60405180910390fd5b80915050919050565b60006004600083815260200190815260200160002060009054906101000a900473ffffffffffffffffffffffffffffffffffffffff169050919050565b600033905090565b611cb4838383600161254f565b505050565b6000611cc6848484612714565b90509392505050565b600073ffffffffffffffffffffffffffffffffffffffff168273ffffffffffffffffffffffffffffffffffffffff1603611d415760006040517f64a0ae92000000000000000000000000000000000000000000000000000000008152600401611d389190613038565b60405180910390fd5b6000611d4f83836000611cb9565b9050600073ffffffffffffffffffffffffffffffffffffffff168173ffffffffffffffffffffffffffffffffffffffff1603611dc257816040517f7e273289000000000000000000000000000000000000000000000000000000008152600401611db99190613338565b60405180910390fd5b8373ffffffffffffffffffffffffffffffffffffffff168173ffffffffffffffffffffffffffffffffffffffff1614611e36578382826040517f64283d7b000000000000000000000000000000000000000000000000000000008152600401611e2d93929190613898565b60405180910390fd5b50505050565b611e44612dbe565b60006040518060e001604052808a73ffffffffffffffffffffffffffffffffffffffff168152602001851515815260200187815260200186815260200189815260200188815260200184815250905080915050979650505050505050565b600073ffffffffffffffffffffffffffffffffffffffff168273ffffffffffffffffffffffffffffffffffffffff1603611f145760006040517f64a0ae92000000000000000000000000000000000000000000000000000000008152600401611f0b9190613038565b60405180910390fd5b6000611f2283836000611cb9565b9050600073ffffffffffffffffffffffffffffffffffffffff168173ffffffffffffffffffffffffffffffffffffffff1614611f965760006040517f73c6ac6e000000000000000000000000000000000000000000000000000000008152600401611f8d9190613038565b60405180910390fd5b505050565b80600660008481526020019081526020016000209081611fbb9190613c34565b507ff8e1a15aba9398e019f0b49df1a4fde98ee17ae345cb5f6b5e2c27f5033e8ce782604051611feb9190613338565b60405180910390a15050565b600073ffffffffffffffffffffffffffffffffffffffff168273ffffffffffffffffffffffffffffffffffffffff160361206857816040517f5b08ba1800000000000000000000000000000000000000000000000000000000815260040161205f9190613038565b60405180910390fd5b80600560008573ffffffffffffffffffffffffffffffffffffffff1673ffffffffffffffffffffffffffffffffffffffff16815260200190815260200160002060008473ffffffffffffffffffffffffffffffffffffffff1673ffffffffffffffffffffffffffffffffffffffff16815260200190815260200160002060006101000a81548160ff0219169083151502179055508173ffffffffffffffffffffffffffffffffffffffff168373ffffffffffffffffffffffffffffffffffffffff167f17307eab39ab6107e8899845ad3d59bd9653f200f220920489ca2b5937696c31836040516121599190612ec7565b60405180910390a3505050565b60008373ffffffffffffffffffffffffffffffffffffffff163b1115612317578273ffffffffffffffffffffffffffffffffffffffff1663150b7a026121aa611c9f565b8685856040518563ffffffff1660e01b81526004016121cc949392919061418b565b6020604051808303816000875af192505050801561220857506040513d601f19601f8201168201806040525081019061220591906141ec565b60015b61228c573d8060008114612238576040519150601f19603f3d011682016040523d82523d6000602084013e61223d565b606091505b50600081510361228457836040517f64a0ae9200000000000000000000000000000000000000000000000000000000815260040161227b9190613038565b60405180910390fd5b805181602001fd5b63150b7a0260e01b7bffffffffffffffffffffffffffffffffffffffffffffffffffffffff1916817bffffffffffffffffffffffffffffffffffffffffffffffffffffffff19161461231557836040517f64a0ae9200000000000000000000000000000000000000000000000000000000815260040161230c9190613038565b60405180910390fd5b505b50505050565b606061232882611bda565b50600060066000848152602001908152602001600020805461234990613867565b80601f016020809104026020016040519081016040528092919081815260200182805461237590613867565b80156123c25780601f10612397576101008083540402835291602001916123c2565b820191906000526020600020905b8154815290600101906020018083116123a557829003601f168201915b5050505050905060006123d361292e565b905060008151036123e857819250505061242b565b60008251111561241d578082604051602001612405929190614255565b6040516020818303038152906040529250505061242b565b61242684612945565b925050505b919050565b60007f80ac58cd000000000000000000000000000000000000000000000000000000007bffffffffffffffffffffffffffffffffffffffffffffffffffffffff1916827bffffffffffffffffffffffffffffffffffffffffffffffffffffffff191614806124fb57507f5b5e139f000000000000000000000000000000000000000000000000000000007bffffffffffffffffffffffffffffffffffffffffffffffffffffffff1916827bffffffffffffffffffffffffffffffffffffffffffffffffffffffff1916145b8061250b575061250a826129ae565b5b9050919050565b60006002600083815260200190815260200160002060009054906101000a900473ffffffffffffffffffffffffffffffffffffffff169050919050565b80806125885750600073ffffffffffffffffffffffffffffffffffffffff168273ffffffffffffffffffffffffffffffffffffffff1614155b156126bc57600061259884611bda565b9050600073ffffffffffffffffffffffffffffffffffffffff168373ffffffffffffffffffffffffffffffffffffffff161415801561260357508273ffffffffffffffffffffffffffffffffffffffff168173ffffffffffffffffffffffffffffffffffffffff1614155b80156126165750612614818461165a565b155b1561265857826040517fa9fbf51f00000000000000000000000000000000000000000000000000000000815260040161264f9190613038565b60405180910390fd5b81156126ba57838573ffffffffffffffffffffffffffffffffffffffff168273ffffffffffffffffffffffffffffffffffffffff167f8c5be1e5ebec7d5bd14f71427d1e84f3dd0314c0f7b2291e5b200ac8c7c3b92560405160405180910390a45b505b836004600085815260200190815260200160002060006101000a81548173ffffffffffffffffffffffffffffffffffffffff021916908373ffffffffffffffffffffffffffffffffffffffff16021790555050505050565b60008061272084612512565b9050600073ffffffffffffffffffffffffffffffffffffffff168373ffffffffffffffffffffffffffffffffffffffff161461276257612761818486612a18565b5b600073ffffffffffffffffffffffffffffffffffffffff168173ffffffffffffffffffffffffffffffffffffffff16146127f3576127a460008560008061254f565b6001600360008373ffffffffffffffffffffffffffffffffffffffff1673ffffffffffffffffffffffffffffffffffffffff168152602001908152602001600020600082825403925050819055505b600073ffffffffffffffffffffffffffffffffffffffff168573ffffffffffffffffffffffffffffffffffffffff1614612876576001600360008773ffffffffffffffffffffffffffffffffffffffff1673ffffffffffffffffffffffffffffffffffffffff168152602001908152602001600020600082825401925050819055505b846002600086815260200190815260200160002060006101000a81548173ffffffffffffffffffffffffffffffffffffffff021916908373ffffffffffffffffffffffffffffffffffffffff160217905550838573ffffffffffffffffffffffffffffffffffffffff168273ffffffffffffffffffffffffffffffffffffffff167fddf252ad1be2c89b69c2b068fc378daa952ba7f163c4a11628f55a4df523b3ef60405160405180910390a4809150509392505050565b606060405180602001604052806000815250905090565b606061295082611bda565b50600061295b61292e565b9050600081511161297b57604051806020016040528060008152506129a6565b8061298584612adc565b604051602001612996929190614255565b6040516020818303038152906040525b915050919050565b60007f01ffc9a7000000000000000000000000000000000000000000000000000000007bffffffffffffffffffffffffffffffffffffffffffffffffffffffff1916827bffffffffffffffffffffffffffffffffffffffffffffffffffffffff1916149050919050565b612a23838383612baa565b612ad757600073ffffffffffffffffffffffffffffffffffffffff168373ffffffffffffffffffffffffffffffffffffffff1603612a9857806040517f7e273289000000000000000000000000000000000000000000000000000000008152600401612a8f9190613338565b60405180910390fd5b81816040517f177e802f000000000000000000000000000000000000000000000000000000008152600401612ace929190614279565b60405180910390fd5b505050565b606060006001612aeb84612c6b565b01905060008167ffffffffffffffff811115612b0a57612b09613456565b5b6040519080825280601f01601f191660200182016040528015612b3c5781602001600182028036833780820191505090505b509050600082602001820190505b600115612b9f578080600190039150507f3031323334353637383961626364656600000000000000000000000000000000600a86061a8153600a8581612b9357612b926142a2565b5b04945060008503612b4a575b819350505050919050565b60008073ffffffffffffffffffffffffffffffffffffffff168373ffffffffffffffffffffffffffffffffffffffff1614158015612c6257508273ffffffffffffffffffffffffffffffffffffffff168473ffffffffffffffffffffffffffffffffffffffff161480612c235750612c22848461165a565b5b80612c6157508273ffffffffffffffffffffffffffffffffffffffff16612c4983611c62565b73ffffffffffffffffffffffffffffffffffffffff16145b5b90509392505050565b600080600090507a184f03e93ff9f4daa797ed6e38ed64bf6a1f0100000000000000008310612cc9577a184f03e93ff9f4daa797ed6e38ed64bf6a1f0100000000000000008381612cbf57612cbe6142a2565b5b0492506040810190505b6d04ee2d6d415b85acef81000000008310612d06576d04ee2d6d415b85acef81000000008381612cfc57612cfb6142a2565b5b0492506020810190505b662386f26fc100008310612d3557662386f26fc100008381612d2b57612d2a6142a2565b5b0492506010810190505b6305f5e1008310612d5e576305f5e1008381612d5457612d536142a2565b5b0492506008810190505b6127108310612d83576127108381612d7957612d786142a2565b5b0492506004810190505b60648310612da65760648381612d9c57612d9b6142a2565b5b0492506002810190505b600a8310612db5576001810190505b80915050919050565b6040518060e00160405280600073ffffffffffffffffffffffffffffffffffffffff16815260200160001515815260200160008152602001600081526020016060815260200160608152602001606081525090565b6000604051905090565b600080fd5b600080fd5b60007fffffffff0000000000000000000000000000000000000000000000000000000082169050919050565b612e5c81612e27565b8114612e6757600080fd5b50565b600081359050612e7981612e53565b92915050565b600060208284031215612e9557612e94612e1d565b5b6000612ea384828501612e6a565b91505092915050565b60008115159050919050565b612ec181612eac565b82525050565b6000602082019050612edc6000830184612eb8565b92915050565b600081519050919050565b600082825260208201905092915050565b60005b83811015612f1c578082015181840152602081019050612f01565b60008484015250505050565b6000601f19601f8301169050919050565b6000612f4482612ee2565b612f4e8185612eed565b9350612f5e818560208601612efe565b612f6781612f28565b840191505092915050565b60006020820190508181036000830152612f8c8184612f39565b905092915050565b6000819050919050565b612fa781612f94565b8114612fb257600080fd5b50565b600081359050612fc481612f9e565b92915050565b600060208284031215612fe057612fdf612e1d565b5b6000612fee84828501612fb5565b91505092915050565b600073ffffffffffffffffffffffffffffffffffffffff82169050919050565b600061302282612ff7565b9050919050565b61303281613017565b82525050565b600060208201905061304d6000830184613029565b92915050565b61305c81613017565b811461306757600080fd5b50565b60008135905061307981613053565b92915050565b6000806040838503121561309657613095612e1d565b5b60006130a48582860161306a565b92505060206130b585828601612fb5565b9150509250929050565b600081519050919050565b600082825260208201905092915050565b6000819050602082019050919050565b60006130f682612ff7565b9050919050565b613106816130eb565b82525050565b61311581612eac565b82525050565b61312481612f94565b82525050565b600082825260208201905092915050565b600061314682612ee2565b613150818561312a565b9350613160818560208601612efe565b61316981612f28565b840191505092915050565b600060e08301600083015161318c60008601826130fd565b50602083015161319f602086018261310c565b5060408301516131b2604086018261311b565b5060608301516131c5606086018261311b565b50608083015184820360808601526131dd828261313b565b91505060a083015184820360a08601526131f7828261313b565b91505060c083015184820360c0860152613211828261313b565b9150508091505092915050565b600061322a8383613174565b905092915050565b6000602082019050919050565b600061324a826130bf565b61325481856130ca565b935083602082028501613266856130db565b8060005b858110156132a25784840389528151613283858261321e565b945061328e83613232565b925060208a0199505060018101905061326a565b50829750879550505050505092915050565b600060208201905081810360008301526132ce818461323f565b905092915050565b6000806000606084860312156132ef576132ee612e1d565b5b60006132fd8682870161306a565b935050602061330e8682870161306a565b925050604061331f86828701612fb5565b9150509250925092565b61333281612f94565b82525050565b600060208201905061334d6000830184613329565b92915050565b60006020828403121561336957613368612e1d565b5b60006133778482850161306a565b91505092915050565b600060e08301600083015161339860008601826130fd565b5060208301516133ab602086018261310c565b5060408301516133be604086018261311b565b5060608301516133d1606086018261311b565b50608083015184820360808601526133e9828261313b565b91505060a083015184820360a0860152613403828261313b565b91505060c083015184820360c086015261341d828261313b565b9150508091505092915050565b600060208201905081810360008301526134448184613380565b905092915050565b600080fd5b600080fd5b7f4e487b7100000000000000000000000000000000000000000000000000000000600052604160045260246000fd5b61348e82612f28565b810181811067ffffffffffffffff821117156134ad576134ac613456565b5b80604052505050565b60006134c0612e13565b90506134cc8282613485565b919050565b600067ffffffffffffffff8211156134ec576134eb613456565b5b6134f582612f28565b9050602081019050919050565b82818337600083830152505050565b600061352461351f846134d1565b6134b6565b9050828152602081018484840111156135405761353f613451565b5b61354b848285613502565b509392505050565b600082601f8301126135685761356761344c565b5b8135613578848260208601613511565b91505092915050565b60008060006060848603121561359a57613599612e1d565b5b600084013567ffffffffffffffff8111156135b8576135b7612e22565b5b6135c486828701613553565b935050602084013567ffffffffffffffff8111156135e5576135e4612e22565b5b6135f186828701613553565b925050604084013567ffffffffffffffff81111561361257613611612e22565b5b61361e86828701613553565b9150509250925092565b61363181612eac565b811461363c57600080fd5b50565b60008135905061364e81613628565b92915050565b6000806040838503121561366b5761366a612e1d565b5b60006136798582860161306a565b925050602061368a8582860161363f565b9150509250929050565b600067ffffffffffffffff8211156136af576136ae613456565b5b6136b882612f28565b9050602081019050919050565b60006136d86136d384613694565b6134b6565b9050828152602081018484840111156136f4576136f3613451565b5b6136ff848285613502565b509392505050565b600082601f83011261371c5761371b61344c565b5b813561372c8482602086016136c5565b91505092915050565b6000806000806080858703121561374f5761374e612e1d565b5b600061375d8782880161306a565b945050602061376e8782880161306a565b935050604061377f87828801612fb5565b925050606085013567ffffffffffffffff8111156137a05761379f612e22565b5b6137ac87828801613707565b91505092959194509250565b600080604083850312156137cf576137ce612e1d565b5b60006137dd8582860161306a565b92505060206137ee8582860161306a565b9150509250929050565b6000806040838503121561380f5761380e612e1d565b5b600061381d85828601612fb5565b925050602061382e85828601612fb5565b9150509250929050565b7f4e487b7100000000000000000000000000000000000000000000000000000000600052602260045260246000fd5b6000600282049050600182168061387f57607f821691505b60208210810361389257613891613838565b5b50919050565b60006060820190506138ad6000830186613029565b6138ba6020830185613329565b6138c76040830184613029565b949350505050565b7f4e487b7100000000000000000000000000000000000000000000000000000000600052603260045260246000fd5b7f63616e6e6f7420627579206f776e204e46540000000000000000000000000000600082015250565b6000613934601283612eed565b915061393f826138fe565b602082019050919050565b6000602082019050818103600083015261396381613927565b9050919050565b7f4e4654206973206e6f74206c697374656420666f722073616c65000000000000600082015250565b60006139a0601a83612eed565b91506139ab8261396a565b602082019050919050565b600060208201905081810360008301526139cf81613993565b9050919050565b7f696e636f727265637420707269636520616d6f756e7400000000000000000000600082015250565b6000613a0c601683612eed565b9150613a17826139d6565b602082019050919050565b60006020820190508181036000830152613a3b816139ff565b9050919050565b600081905092915050565b50565b6000613a5d600083613a42565b9150613a6882613a4d565b600082019050919050565b6000613a7e82613a50565b9150819050919050565b60008190508160005260206000209050919050565b60006020601f8301049050919050565b600082821b905092915050565b600060088302613aea7fffffffffffffffffffffffffffffffffffffffffffffffffffffffffffffffff82613aad565b613af48683613aad565b95508019841693508086168417925050509392505050565b6000819050919050565b6000613b31613b2c613b2784612f94565b613b0c565b612f94565b9050919050565b6000819050919050565b613b4b83613b16565b613b5f613b5782613b38565b848454613aba565b825550505050565b600090565b613b74613b67565b613b7f818484613b42565b505050565b5b81811015613ba357613b98600082613b6c565b600181019050613b85565b5050565b601f821115613be857613bb981613a88565b613bc284613a9d565b81016020851015613bd1578190505b613be5613bdd85613a9d565b830182613b84565b50505b505050565b600082821c905092915050565b6000613c0b60001984600802613bed565b1980831691505092915050565b6000613c248383613bfa565b9150826002028217905092915050565b613c3d82612ee2565b67ffffffffffffffff811115613c5657613c55613456565b5b613c608254613867565b613c6b828285613ba7565b600060209050601f831160018114613c9e5760008415613c8c578287015190505b613c968582613c18565b865550613cfe565b601f198416613cac86613a88565b60005b82811015613cd457848901518255600182019150602085019450602081019050613caf565b86831015613cf15784890151613ced601f891682613bfa565b8355505b6001600288020188555050505b505050505050565b7f746865207061796d656e74207472616e73616374696f6e206661696c65640000600082015250565b6000613d3c601e83612eed565b9150613d4782613d06565b602082019050919050565b60006020820190508181036000830152613d6b81613d2f565b9050919050565b7f4e465420697320616c72656164792064652d6c69737465640000000000000000600082015250565b6000613da8601883612eed565b9150613db382613d72565b602082019050919050565b60006020820190508181036000830152613dd781613d9b565b9050919050565b7f63616e6e6f74206d616b65206e6f6e2d6f776e6564204e4654206e6f6e2d736560008201527f6c6c61626c650000000000000000000000000000000000000000000000000000602082015250565b6000613e3a602683612eed565b9150613e4582613dde565b604082019050919050565b60006020820190508181036000830152613e6981613e2d565b9050919050565b7f4e487b7100000000000000000000000000000000000000000000000000000000600052601160045260246000fd5b6000613eaa82612f94565b91507fffffffffffffffffffffffffffffffffffffffffffffffffffffffffffffffff8203613edc57613edb613e70565b5b600182019050919050565b6000819050919050565b6000613f0c613f07613f0284613ee7565b613b0c565b612f94565b9050919050565b613f1c81613ef1565b82525050565b600060e082019050613f37600083018a613029565b613f446020830189612eb8565b613f516040830188613f13565b613f5e6060830187613329565b8181036080830152613f708186612f39565b905081810360a0830152613f848185612f39565b905081810360c0830152613f988184612f39565b905098975050505050505050565b7f63616e6e6f74206d616b65206e6f6e2d6f776e6564204e46542073656c6c616260008201527f6c65000000000000000000000000000000000000000000000000000000000000602082015250565b6000614002602283612eed565b915061400d82613fa6565b604082019050919050565b6000602082019050818103600083015261403181613ff5565b9050919050565b7f4e465420697320616c7265616479206c697374656420666f722073616c650000600082015250565b600061406e601e83612eed565b915061407982614038565b602082019050919050565b6000602082019050818103600083015261409d81614061565b9050919050565b7f7072696365206d7573742062652067726561746572207468616e20746f20737560008201527f636365737366756c6c79206c697374204e465400000000000000000000000000602082015250565b6000614100603383612eed565b915061410b826140a4565b604082019050919050565b6000602082019050818103600083015261412f816140f3565b9050919050565b600081519050919050565b600082825260208201905092915050565b600061415d82614136565b6141678185614141565b9350614177818560208601612efe565b61418081612f28565b840191505092915050565b60006080820190506141a06000830187613029565b6141ad6020830186613029565b6141ba6040830185613329565b81810360608301526141cc8184614152565b905095945050505050565b6000815190506141e681612e53565b92915050565b60006020828403121561420257614201612e1d565b5b6000614210848285016141d7565b91505092915050565b600081905092915050565b600061422f82612ee2565b6142398185614219565b9350614249818560208601612efe565b80840191505092915050565b60006142618285614224565b915061426d8284614224565b91508190509392505050565b600060408201905061428e6000830185613029565b61429b6020830184613329565b9392505050565b7f4e487b7100000000000000000000000000000000000000000000000000000000600052601260045260246000fdfea2646970667358221220364c9228522e95ba01ecef6f71d428de3af1aec6af3b8c192dc1f1e010494a2c64736f6c63430008180033",
  "linkReferences": {},
  "deployedLinkReferences": {}
}